{
    "contractName": "FlowSeekerPlatform",
    "abi": [
        {
            "inputs": [],
            "stateMutability": "nonpayable",
            "type": "constructor"
        },
        {
            "anonymous": false,
            "inputs": [
                {
                    "indexed": true,
                    "internalType": "address",
                    "name": "owner",
                    "type": "address"
                },
                {
                    "indexed": true,
                    "internalType": "address",
                    "name": "approved",
                    "type": "address"
                },
                {
                    "indexed": true,
                    "internalType": "uint256",
                    "name": "tokenId",
                    "type": "uint256"
                }
            ],
            "name": "Approval",
            "type": "event"
        },
        {
            "anonymous": false,
            "inputs": [
                {
                    "indexed": true,
                    "internalType": "address",
                    "name": "owner",
                    "type": "address"
                },
                {
                    "indexed": true,
                    "internalType": "address",
                    "name": "operator",
                    "type": "address"
                },
                {
                    "indexed": false,
                    "internalType": "bool",
                    "name": "approved",
                    "type": "bool"
                }
            ],
            "name": "ApprovalForAll",
            "type": "event"
        },
        {
            "anonymous": false,
            "inputs": [
                {
                    "indexed": false,
                    "internalType": "uint256",
                    "name": "_fromTokenId",
                    "type": "uint256"
                },
                {
                    "indexed": false,
                    "internalType": "uint256",
                    "name": "_toTokenId",
                    "type": "uint256"
                }
            ],
            "name": "BatchMetadataUpdate",
            "type": "event"
        },
        {
            "anonymous": false,
            "inputs": [
                {
                    "indexed": true,
                    "internalType": "uint256",
                    "name": "jobId",
                    "type": "uint256"
                },
                {
                    "indexed": true,
                    "internalType": "uint256",
                    "name": "applicationId",
                    "type": "uint256"
                },
                {
                    "indexed": true,
                    "internalType": "address",
                    "name": "applicant",
                    "type": "address"
                }
            ],
            "name": "JobApplied",
            "type": "event"
        },
        {
            "anonymous": false,
            "inputs": [
                {
                    "indexed": true,
                    "internalType": "uint256",
                    "name": "jobId",
                    "type": "uint256"
                },
                {
                    "indexed": true,
                    "internalType": "address",
                    "name": "recruiter",
                    "type": "address"
                }
            ],
            "name": "JobCreated",
            "type": "event"
        },
        {
            "anonymous": false,
            "inputs": [
                {
                    "indexed": false,
                    "internalType": "uint256",
                    "name": "_tokenId",
                    "type": "uint256"
                }
            ],
            "name": "MetadataUpdate",
            "type": "event"
        },
        {
            "anonymous": false,
            "inputs": [
                {
                    "indexed": true,
                    "internalType": "address",
                    "name": "previousOwner",
                    "type": "address"
                },
                {
                    "indexed": true,
                    "internalType": "address",
                    "name": "newOwner",
                    "type": "address"
                }
            ],
            "name": "OwnershipTransferred",
            "type": "event"
        },
        {
            "anonymous": false,
            "inputs": [
                {
                    "indexed": true,
                    "internalType": "address",
                    "name": "from",
                    "type": "address"
                },
                {
                    "indexed": true,
                    "internalType": "address",
                    "name": "to",
                    "type": "address"
                },
                {
                    "indexed": true,
                    "internalType": "uint256",
                    "name": "tokenId",
                    "type": "uint256"
                }
            ],
            "name": "Transfer",
            "type": "event"
        },
        {
            "anonymous": false,
            "inputs": [
                {
                    "indexed": true,
                    "internalType": "address",
                    "name": "user",
                    "type": "address"
                },
                {
                    "indexed": false,
                    "internalType": "uint256",
                    "name": "tokenId",
                    "type": "uint256"
                },
                {
                    "indexed": false,
                    "internalType": "string",
                    "name": "username",
                    "type": "string"
                },
                {
                    "indexed": false,
                    "internalType": "enum FlowSeekerPlatform.UserType",
                    "name": "userType",
                    "type": "uint8"
                }
            ],
            "name": "UserProfileCreated",
            "type": "event"
        },
        {
            "inputs": [
                {
                    "internalType": "uint256",
                    "name": "_jobId",
                    "type": "uint256"
                },
                {
                    "internalType": "string",
                    "name": "_message",
                    "type": "string"
                }
            ],
            "name": "ApplyToJob",
            "outputs": [
                {
                    "internalType": "uint256",
                    "name": "",
                    "type": "uint256"
                }
            ],
            "stateMutability": "nonpayable",
            "type": "function"
        },
        {
            "inputs": [
                {
                    "internalType": "address",
                    "name": "to",
                    "type": "address"
                },
                {
                    "internalType": "uint256",
                    "name": "tokenId",
                    "type": "uint256"
                }
            ],
            "name": "approve",
            "outputs": [],
            "stateMutability": "nonpayable",
            "type": "function"
        },
        {
            "inputs": [
                {
                    "internalType": "address",
                    "name": "owner",
                    "type": "address"
                }
            ],
            "name": "balanceOf",
            "outputs": [
                {
                    "internalType": "uint256",
                    "name": "",
                    "type": "uint256"
                }
            ],
            "stateMutability": "view",
            "type": "function"
        },
        {
            "inputs": [
                {
                    "internalType": "string",
                    "name": "_title",
                    "type": "string"
                },
                {
                    "internalType": "string",
                    "name": "_description",
                    "type": "string"
                },
                {
                    "internalType": "string[]",
                    "name": "_requiredSkills",
                    "type": "string[]"
                },
                {
                    "internalType": "uint256",
                    "name": "_salary",
                    "type": "uint256"
                }
            ],
            "name": "createJob",
            "outputs": [
                {
                    "internalType": "uint256",
                    "name": "",
                    "type": "uint256"
                }
            ],
            "stateMutability": "nonpayable",
            "type": "function"
        },
        {
            "inputs": [
                {
                    "internalType": "enum FlowSeekerPlatform.UserType",
                    "name": "_userType",
                    "type": "uint8"
                },
                {
                    "internalType": "string",
                    "name": "_username",
                    "type": "string"
                },
                {
                    "internalType": "string",
                    "name": "_email",
                    "type": "string"
                },
                {
                    "internalType": "string",
                    "name": "_bio",
                    "type": "string"
                },
                {
                    "internalType": "string",
                    "name": "_profession",
                    "type": "string"
                },
                {
                    "internalType": "string[]",
                    "name": "_skills",
                    "type": "string[]"
                },
                {
                    "internalType": "string",
                    "name": "_tokenURI",
                    "type": "string"
                }
            ],
            "name": "createUserProfile",
            "outputs": [
                {
                    "internalType": "uint256",
                    "name": "",
                    "type": "uint256"
                }
            ],
            "stateMutability": "nonpayable",
            "type": "function"
        },
        {
            "inputs": [
                {
                    "internalType": "uint256",
                    "name": "tokenId",
                    "type": "uint256"
                }
            ],
            "name": "getApproved",
            "outputs": [
                {
                    "internalType": "address",
                    "name": "",
                    "type": "address"
                }
            ],
            "stateMutability": "view",
            "type": "function"
        },
        {
            "inputs": [
                {
                    "internalType": "uint256",
                    "name": "_jobId",
                    "type": "uint256"
                }
            ],
            "name": "getJobList",
            "outputs": [
                {
                    "components": [
                        {
                            "internalType": "uint256",
                            "name": "id",
                            "type": "uint256"
                        },
                        {
                            "internalType": "address",
                            "name": "recruiter",
                            "type": "address"
                        },
                        {
                            "internalType": "string",
                            "name": "title",
                            "type": "string"
                        },
                        {
                            "internalType": "string",
                            "name": "description",
                            "type": "string"
                        },
                        {
                            "internalType": "string[]",
                            "name": "requiredSkills",
                            "type": "string[]"
                        },
                        {
                            "internalType": "uint256",
                            "name": "salary",
                            "type": "uint256"
                        },
                        {
                            "internalType": "uint256",
                            "name": "createdAt",
                            "type": "uint256"
                        },
                        {
                            "internalType": "enum FlowSeekerPlatform.JobStatus",
                            "name": "status",
                            "type": "uint8"
                        }
                    ],
                    "internalType": "struct FlowSeekerPlatform.Job",
                    "name": "",
                    "type": "tuple"
                }
            ],
            "stateMutability": "view",
            "type": "function"
        },
        {
            "inputs": [
                {
                    "internalType": "uint256",
                    "name": "_tokenId",
                    "type": "uint256"
                }
            ],
            "name": "getUserProfile",
            "outputs": [
                {
                    "components": [
                        {
                            "internalType": "enum FlowSeekerPlatform.UserType",
                            "name": "userType",
                            "type": "uint8"
                        },
                        {
                            "internalType": "string",
                            "name": "username",
                            "type": "string"
                        },
                        {
                            "internalType": "string",
                            "name": "email",
                            "type": "string"
                        },
                        {
                            "internalType": "string",
                            "name": "bio",
                            "type": "string"
                        },
                        {
                            "internalType": "string",
                            "name": "profession",
                            "type": "string"
                        },
                        {
                            "internalType": "string[]",
                            "name": "skills",
                            "type": "string[]"
                        },
                        {
                            "internalType": "uint256",
                            "name": "joinedAt",
                            "type": "uint256"
                        }
                    ],
                    "internalType": "struct FlowSeekerPlatform.UserProfile",
                    "name": "",
                    "type": "tuple"
                }
            ],
            "stateMutability": "view",
            "type": "function"
        },
        {
            "inputs": [
                {
                    "internalType": "address",
                    "name": "_user",
                    "type": "address"
                }
            ],
            "name": "getUserTokenId",
            "outputs": [
                {
                    "internalType": "uint256",
                    "name": "",
                    "type": "uint256"
                }
            ],
            "stateMutability": "view",
            "type": "function"
        },
        {
            "inputs": [
                {
                    "internalType": "address",
                    "name": "owner",
                    "type": "address"
                },
                {
                    "internalType": "address",
                    "name": "operator",
                    "type": "address"
                }
            ],
            "name": "isApprovedForAll",
            "outputs": [
                {
                    "internalType": "bool",
                    "name": "",
                    "type": "bool"
                }
            ],
            "stateMutability": "view",
            "type": "function"
        },
        {
            "inputs": [
                {
                    "internalType": "uint256",
                    "name": "",
                    "type": "uint256"
                }
            ],
            "name": "jobApplications",
            "outputs": [
                {
                    "internalType": "uint256",
                    "name": "id",
                    "type": "uint256"
                },
                {
                    "internalType": "uint256",
                    "name": "jobId",
                    "type": "uint256"
                },
                {
                    "internalType": "uint256",
                    "name": "userProfileTokenId",
                    "type": "uint256"
                },
                {
                    "internalType": "address",
                    "name": "applicant",
                    "type": "address"
                },
                {
                    "internalType": "string",
                    "name": "message",
                    "type": "string"
                },
                {
                    "internalType": "uint256",
                    "name": "appliedAt",
                    "type": "uint256"
                },
                {
                    "internalType": "bool",
                    "name": "accepted",
                    "type": "bool"
                }
            ],
            "stateMutability": "view",
            "type": "function"
        },
        {
            "inputs": [
                {
                    "internalType": "uint256",
                    "name": "",
                    "type": "uint256"
                }
            ],
            "name": "jobs",
            "outputs": [
                {
                    "internalType": "uint256",
                    "name": "id",
                    "type": "uint256"
                },
                {
                    "internalType": "address",
                    "name": "recruiter",
                    "type": "address"
                },
                {
                    "internalType": "string",
                    "name": "title",
                    "type": "string"
                },
                {
                    "internalType": "string",
                    "name": "description",
                    "type": "string"
                },
                {
                    "internalType": "uint256",
                    "name": "salary",
                    "type": "uint256"
                },
                {
                    "internalType": "uint256",
                    "name": "createdAt",
                    "type": "uint256"
                },
                {
                    "internalType": "enum FlowSeekerPlatform.JobStatus",
                    "name": "status",
                    "type": "uint8"
                }
            ],
            "stateMutability": "view",
            "type": "function"
        },
        {
            "inputs": [],
            "name": "name",
            "outputs": [
                {
                    "internalType": "string",
                    "name": "",
                    "type": "string"
                }
            ],
            "stateMutability": "view",
            "type": "function"
        },
        {
            "inputs": [],
            "name": "owner",
            "outputs": [
                {
                    "internalType": "address",
                    "name": "",
                    "type": "address"
                }
            ],
            "stateMutability": "view",
            "type": "function"
        },
        {
            "inputs": [
                {
                    "internalType": "uint256",
                    "name": "tokenId",
                    "type": "uint256"
                }
            ],
            "name": "ownerOf",
            "outputs": [
                {
                    "internalType": "address",
                    "name": "",
                    "type": "address"
                }
            ],
            "stateMutability": "view",
            "type": "function"
        },
        {
            "inputs": [],
            "name": "renounceOwnership",
            "outputs": [],
            "stateMutability": "nonpayable",
            "type": "function"
        },
        {
            "inputs": [
                {
                    "internalType": "address",
                    "name": "from",
                    "type": "address"
                },
                {
                    "internalType": "address",
                    "name": "to",
                    "type": "address"
                },
                {
                    "internalType": "uint256",
                    "name": "tokenId",
                    "type": "uint256"
                }
            ],
            "name": "safeTransferFrom",
            "outputs": [],
            "stateMutability": "nonpayable",
            "type": "function"
        },
        {
            "inputs": [
                {
                    "internalType": "address",
                    "name": "from",
                    "type": "address"
                },
                {
                    "internalType": "address",
                    "name": "to",
                    "type": "address"
                },
                {
                    "internalType": "uint256",
                    "name": "tokenId",
                    "type": "uint256"
                },
                {
                    "internalType": "bytes",
                    "name": "data",
                    "type": "bytes"
                }
            ],
            "name": "safeTransferFrom",
            "outputs": [],
            "stateMutability": "nonpayable",
            "type": "function"
        },
        {
            "inputs": [
                {
                    "internalType": "address",
                    "name": "operator",
                    "type": "address"
                },
                {
                    "internalType": "bool",
                    "name": "approved",
                    "type": "bool"
                }
            ],
            "name": "setApprovalForAll",
            "outputs": [],
            "stateMutability": "nonpayable",
            "type": "function"
        },
        {
            "inputs": [
                {
                    "internalType": "bytes4",
                    "name": "interfaceId",
                    "type": "bytes4"
                }
            ],
            "name": "supportsInterface",
            "outputs": [
                {
                    "internalType": "bool",
                    "name": "",
                    "type": "bool"
                }
            ],
            "stateMutability": "view",
            "type": "function"
        },
        {
            "inputs": [],
            "name": "symbol",
            "outputs": [
                {
                    "internalType": "string",
                    "name": "",
                    "type": "string"
                }
            ],
            "stateMutability": "view",
            "type": "function"
        },
        {
            "inputs": [
                {
                    "internalType": "uint256",
                    "name": "tokenId",
                    "type": "uint256"
                }
            ],
            "name": "tokenURI",
            "outputs": [
                {
                    "internalType": "string",
                    "name": "",
                    "type": "string"
                }
            ],
            "stateMutability": "view",
            "type": "function"
        },
        {
            "inputs": [
                {
                    "internalType": "address",
                    "name": "from",
                    "type": "address"
                },
                {
                    "internalType": "address",
                    "name": "to",
                    "type": "address"
                },
                {
                    "internalType": "uint256",
                    "name": "tokenId",
                    "type": "uint256"
                }
            ],
            "name": "transferFrom",
            "outputs": [],
            "stateMutability": "nonpayable",
            "type": "function"
        },
        {
            "inputs": [
                {
                    "internalType": "address",
                    "name": "newOwner",
                    "type": "address"
                }
            ],
            "name": "transferOwnership",
            "outputs": [],
            "stateMutability": "nonpayable",
            "type": "function"
        },
        {
            "inputs": [
                {
                    "internalType": "uint256",
                    "name": "",
                    "type": "uint256"
                }
            ],
            "name": "userProfiles",
            "outputs": [
                {
                    "internalType": "enum FlowSeekerPlatform.UserType",
                    "name": "userType",
                    "type": "uint8"
                },
                {
                    "internalType": "string",
                    "name": "username",
                    "type": "string"
                },
                {
                    "internalType": "string",
                    "name": "email",
                    "type": "string"
                },
                {
                    "internalType": "string",
                    "name": "bio",
                    "type": "string"
                },
                {
                    "internalType": "string",
                    "name": "profession",
                    "type": "string"
                },
                {
                    "internalType": "uint256",
                    "name": "joinedAt",
                    "type": "uint256"
                }
            ],
            "stateMutability": "view",
            "type": "function"
        }
    ],
    "bytecode": "60806040523461036657604080519081016001600160401b0381118282101761027c5760409081526012825271466c6f775365656b6572506c6174666f726d60701b602083015280519081016001600160401b0381118282101761027c57604052600381526204653560ec1b602082015281516001600160401b03811161027c575f54600181811c9116801561035c575b602082101461025e57601f81116102fa575b50602092601f821160011461029b57928192935f92610290575b50508160011b915f199060031b1c1916175f555b80516001600160401b03811161027c57600154600181811c91168015610272575b602082101461025e57601f81116101fb575b50602091601f821160011461019b579181925f92610190575b50508160011b915f199060031b1c1916176001555b60078054336001600160a01b03198216811790925560405191906001600160a01b03167f8be0079c531659141344cd1fd0a4f28419497f9722a3daafe3b4186f6b6457e05f80a35f6008555f6009555f600a55612c30908161036b8239f35b015190505f8061011c565b601f1982169260015f52805f20915f5b8581106101e3575083600195106101cb575b505050811b01600155610131565b01515f1960f88460031b161c191690555f80806101bd565b919260206001819286850151815501940192016101ab565b60015f527fb10e2d527612073b26eecdfd717e6a320cf44b4afac2b0732d9fcbe2b7fa0cf6601f830160051c81019160208410610254575b601f0160051c01905b8181106102495750610103565b5f815560010161023c565b9091508190610233565b634e487b7160e01b5f52602260045260245ffd5b90607f16906100f1565b634e487b7160e01b5f52604160045260245ffd5b015190505f806100bc565b601f198216935f8052805f20915f5b8681106102e257508360019596106102ca575b505050811b015f556100d0565b01515f1960f88460031b161c191690555f80806102bd565b919260206001819286850151815501940192016102aa565b5f80527f290decd9548b62a8d60345a988386fc84ba6bc95484008f6362f93160ef3e563601f830160051c81019160208410610352575b601f0160051c01905b81811061034757506100a2565b5f815560010161033a565b9091508190610331565b90607f1690610090565b5f80fdfe6080806040526004361015610012575f80fd5b5f3560e01c90816301ffc9a7146121765750806306fdde03146120d4578063081812fc146120b6578063095ea7b314611f30578063142de2ea14611531578063180aedf31461149157806318d4a12d146113d35780631f52b76c1461120b57806323b872dd146111e75780633fbd0fbf14610e9e57806342842e0e14610e6a5780636352211e14610e3a578063699687cf14610daa5780636f00bc93146107b157806370a082311461071c578063715018a6146106c157806388798fe9146105035780638da5cb5b146104db57806395d89b4114610411578063a22cb4651461033a578063b88d4fde146102b3578063c87b56dd1461027c578063e985e9c514610225578063f2fde38b1461015e5763fefd4e4f1461012f575f80fd5b3461015a57602036600319011261015a57602061015261014d61221f565b6126ee565b604051908152f35b5f80fd5b3461015a57602036600319011261015a5761017761221f565b61017f612970565b6001600160a01b031680156101d157600780546001600160a01b0319811683179091556001600160a01b03167f8be0079c531659141344cd1fd0a4f28419497f9722a3daafe3b4186f6b6457e05f80a3005b60405162461bcd60e51b815260206004820152602660248201527f4f776e61626c653a206e6577206f776e657220697320746865207a65726f206160448201526564647265737360d01b6064820152608490fd5b3461015a57604036600319011261015a5761023e61221f565b610246612235565b9060018060a01b03165f52600560205260405f209060018060a01b03165f52602052602060ff60405f2054166040519015158152f35b3461015a57602036600319011261015a576102af61029b6004356126a6565b6040519182916020835260208301906121fb565b0390f35b3461015a57608036600319011261015a576102cc61221f565b6102d4612235565b90606435906044356001600160401b03831161015a573660238401121561015a57610338936103106103339436906024816004013591016122be565b9261032361031e843361277d565b6125d6565b61032e83838361284c565b612b56565b612a1b565b005b3461015a57604036600319011261015a5761035361221f565b602435908115159081830361015a576001600160a01b0316913383146103cc5761039e90335f52600560205260405f20845f5260205260405f209060ff801983541691151516179055565b6040519081527f17307eab39ab6107e8899845ad3d59bd9653f200f220920489ca2b5937696c3160203392a3005b60405162461bcd60e51b815260206004820152601960248201527f4552433732313a20617070726f766520746f2063616c6c6572000000000000006044820152606490fd5b3461015a575f36600319011261015a576040515f600154610431816123a7565b80845290600181169081156104b75750600114610459575b6102af8361029b81850382612282565b60015f9081527fb10e2d527612073b26eecdfd717e6a320cf44b4afac2b0732d9fcbe2b7fa0cf6939250905b80821061049d5750909150810160200161029b610449565b919260018160209254838588010152019101909291610485565b60ff191660208086019190915291151560051b8401909101915061029b9050610449565b3461015a575f36600319011261015a576007546040516001600160a01b039091168152602090f35b3461015a57602036600319011261015a576004355f60e060405161052681612266565b82815282602082015260606040820152606080820152606060808201528260a08201528260c08201520152801515806106b5575b1561067f575f52600c60205260405f2060405161057681612266565b8154815260018201546001600160a01b0316602082019081529161059c600282016123df565b604083019081526105af600383016123df565b916060840192835261065e6105c660048301612581565b6080860190815261064b60058401549560a0880196875261063860ff600760068801549760c08c019889520154169660e08a01976106038161247f565b88526040519a8b9a60208c525160208c015260018060a01b0390511660408b01525161010060608b01526101208a01906121fb565b9051888203601f190160808a01526121fb565b9051868203601f190160a088015261249d565b925160c08501525160e0840152516106758161247f565b6101008301520390f35b60405162461bcd60e51b815260206004820152600e60248201526d125b9d985b1a5908129bd888125160921b6044820152606490fd5b5060095481111561055a565b3461015a575f36600319011261015a576106d9612970565b600780546001600160a01b031981169091555f906001600160a01b03167f8be0079c531659141344cd1fd0a4f28419497f9722a3daafe3b4186f6b6457e08280a3005b3461015a57602036600319011261015a576001600160a01b0361073d61221f565b16801561075a575f526003602052602060405f2054604051908152f35b60405162461bcd60e51b815260206004820152602960248201527f4552433732313a2061646472657373207a65726f206973206e6f7420612076616044820152683634b21037bbb732b960b91b6064820152608490fd5b3461015a57608036600319011261015a576004356001600160401b03811161015a576107e19036906004016122f4565b6024356001600160401b03811161015a576108009036906004016122f4565b906044356001600160401b03811161015a57610820903690600401612329565b610829336126ee565b805f52600b602052600260ff60405f2054166108448161247f565b14908115610d87575b5015610d2d576009549160018301809311610d1957826009556040519361087385612266565b838552602085019233845260408601928352606086019182526080860190815260a0860191606435835260c087019342855260e08801955f8752875f52600c60205260405f209851895560018060a01b03905116600189019060018060a01b03166001600160601b0360a01b8254161790556002880190518051906001600160401b038211610b525761090683546123a7565b601f8111610ce9575b50602090601f8311600114610c865761093f92915f9183610c7b575b50508160011b915f199060031b1c19161790565b90555b51805160038801916001600160401b038211610b525761096283546123a7565b601f8111610c4b575b50602090601f8311600114610be85761099a92915f9183610bdd5750508160011b915f199060031b1c19161790565b90555b5180516004870191600160401b8211610b52578254828455808310610b66575b50602001915f5260205f20915f905b828210610a37576020888860078c8a8a5160058301555160068201550190516109f48161247f565b6109fd8161247f565b60ff801983541691161790556040519033817fa1614c481428bb94175e0a6935486d35e5bbd86c664a34ddaabc98a48465fb8c5f80a38152f35b80518051906001600160401b038211610b5257610a5486546123a7565b601f8111610b17575b50602090601f8311600114610aae5792610a94836001959460209487965f92610aa35750508160011b915f199060031b1c19161790565b87555b019401910190926109cc565b015190508f8061092b565b90601f19831691875f52815f20925f5b818110610aff5750936020936001969387969383889510610ae7575b505050811b018755610a97565b01515f1960f88460031b161c191690558e8080610ada565b92936020600181928786015181550195019301610abe565b610b4290875f5260205f20601f850160051c81019160208610610b48575b601f0160051c019061256b565b8b610a5d565b9091508190610b35565b634e487b7160e01b5f52604160045260245ffd5b835f528260205f2091820191015b818110610b8157506109bd565b80610b8e600192546123a7565b80610b9b575b5001610b74565b601f81118314610bb057505f81555b8b610b94565b610bcc90825f5283601f60205f20920160051c8201910161256b565b805f525f6020812081835555610baa565b015190508a8061092b565b90601f19831691845f52815f20925f5b818110610c335750908460019594939210610c1b575b505050811b01905561099d565b01515f1960f88460031b161c19169055898080610c0e565b92936020600181928786015181550195019301610bf8565b610c7590845f5260205f20601f850160051c81019160208610610b4857601f0160051c019061256b565b8961096b565b015190508b8061092b565b90601f19831691845f52815f20925f5b818110610cd15750908460019594939210610cb9575b505050811b019055610942565b01515f1960f88460031b161c191690558a8080610cac565b92936020600181928786015181550195019301610c96565b610d1390845f5260205f20601f850160051c81019160208610610b4857601f0160051c019061256b565b8a61090f565b634e487b7160e01b5f52601160045260245ffd5b60405162461bcd60e51b815260206004820152602c60248201527f4f6e6c792072656372756974657273206f7220726566657272616c732063616e60448201526b20637265617465206a6f627360a01b6064820152608490fd5b90505f52600b602052600160ff60405f205416610da38161247f565b148461084d565b3461015a57602036600319011261015a576004355f52600d60205260405f2080546001820154916002810154610e2960018060a01b03600384015416610df2600485016123df565b9060ff600660058701549601541693604051978897885260208801526040870152606086015260e0608086015260e08501906121fb565b9160a0840152151560c08301520390f35b3461015a57602036600319011261015a576020610e58600435612684565b6040516001600160a01b039091168152f35b3461015a57610338610333610e7e366124f5565b9060405192610e8e602085612282565b5f845261032361031e843361277d565b3461015a57604036600319011261015a576004356024356001600160401b03811161015a57610ed19036906004016122f4565b90801515806111db575b156111a557805f52600c60205260ff600760405f20015416610efc8161247f565b61115657610f09336126ee565b805f52600b60205260ff60405f205416610f228161247f565b61111157600a549060018201809211610d195781600a5560405190610f468261224b565b828252602082019084825260408301908152606083013381526080840196875260a084019142835260c08501935f8552865f52600d60205260405f209551865551600186015551600285015560018060a01b03905116600384019060018060a01b03166001600160601b0360a01b8254161790556004830195519586516001600160401b038111610b5257602097610fde83546123a7565b601f81116110e3575b508890601f831160011461107857826006959361103e9897959361101f935f9261106d5750508160011b915f199060031b1c19161790565b90555b51600584015551151591019060ff801983541691151516179055565b604051918133917f862172c1856d6b588026101607e70e39488af9e58219c3e91138d584a2b2eca55f80a48152f35b015190508c8061092b565b90601f19831691845f52815f20925f5b8181106110cc57509260019285926006989661103e9b9a9896106110b4575b505050811b019055611022565b01515f1960f88460031b161c191690558b80806110a7565b92938c600181928786015181550195019301611088565b61110b90845f528a5f20601f850160051c8101918c8610610b4857601f0160051c019061256b565b89610fe7565b60405162461bcd60e51b815260206004820152601860248201527f4f6e6c79204a6f625365656b65722063616e204170706c7900000000000000006044820152606490fd5b60405162461bcd60e51b815260206004820152602160248201527f4a6f62206973206e6f74206f70656e206f7220616c726561647920636c6f73656044820152601960fa1b6064820152608490fd5b60405162461bcd60e51b815260206004820152600e60248201526d125b9d985b1a59081a9bd888125160921b6044820152606490fd5b50600954811115610edb565b3461015a576103386111f8366124f5565b9161120661031e843361277d565b61284c565b3461015a57602036600319011261015a576004355f60c060405161122e8161224b565b828152606060208201526060604082015260608082015260606080820152606060a08201520152801515806113c7575b156113825761126c81612684565b505f52600b60205260405f206040516112848161224b565b60ff8254166112928161247f565b81526112a0600183016123df565b91602082019283526113776112b7600283016123df565b91604084019283526113646112ce600383016123df565b606086019081526113516112e4600485016123df565b916080880192835261063860066112fd60058801612581565b9660a08b0197885201549760c08a0198895261133e6040519b8c9b60208d52516113268161247f565b60208d01525160e060408d01526101008c01906121fb565b90518a8203601f190160608c01526121fb565b9051868203601f190160a08801526121fb565b9051848203601f190160c086015261249d565b905160e08301520390f35b60405162461bcd60e51b815260206004820152601760248201527f50726f66696c6520646f6573206e6f74206578697374730000000000000000006044820152606490fd5b5060085481111561125e565b3461015a57602036600319011261015a576004355f52600b60205260405f2060ff815416611403600183016123df565b91611487611413600283016123df565b91611479611423600383016123df565b61146b6006611434600486016123df565b9401549561145d604051998961144a8c9b61247f565b8a5260c060208b015260c08a01906121fb565b9088820360408a01526121fb565b9086820360608801526121fb565b9084820360808601526121fb565b9060a08301520390f35b3461015a57602036600319011261015a576004355f908152600c60205260409020805460018201546001600160a01b0316916114cf600282016123df565b6114db600383016123df565b9161151460058201549361146b60ff6007600686015495015416946040519889988952602089015260e0604089015260e08801906121fb565b92608085015260a08401526115288161247f565b60c08301520390f35b3461015a5760e036600319011261015a57600435600381101561015a576024356001600160401b03811161015a5761156d9036906004016122f4565b6044356001600160401b03811161015a5761158c9036906004016122f4565b916064356001600160401b03811161015a576115ac9036906004016122f4565b916084356001600160401b03811161015a576115cc9036906004016122f4565b9260a4356001600160401b03811161015a576115ec903690600401612329565b9460c4356001600160401b03811161015a5761160c9036906004016122f4565b956008549560018701809711610d1957866008556020976040516116308a82612282565b5f81523315611eed575f898152600260205260409020546116e39161033391611665906001600160a01b031615155b15612bae565b5f8b815260026020526040902054611687906001600160a01b0316151561165f565b335f81815260038e526040808220805460010190558d825260028f52812080546001600160a01b031916831790558c91907fddf252ad1be2c89b69c2b068fc378daa952ba7f163c4a11628f55a4df523b3ef8180a48a33612a3f565b5f888152600260205260409020546001600160a01b031615611e9157875f526006895260405f20908051906001600160401b038211610b525761172683546123a7565b8b601f8211611e62575b50508a90601f8311600114611dfc5761175f92915f918361106d5750508160011b915f199060031b1c19161790565b90555b7ff8e1a15aba9398e019f0b49df1a4fde98ee17ae345cb5f6b5e2c27f5033e8ce788604051898152a1604051936117988561224b565b6117a18761247f565b8685528885019386855260408601908152606086019182526080860192835260a0860193845260c0860194428652895f52600b8b5260405f2096516117e58161247f565b6117ee8161247f565b60ff8019895416911617875560018701905180516001600160401b038111610b525761181a83546123a7565b8d601f8211611dcd575b50508c8d601f8311600114611d6857508190611854935f92611d5d5750508160011b915f199060031b1c19161790565b90555b60028601905180516001600160401b038111610b525761187783546123a7565b8c601f8211611d2e575b50508b8c601f8311600114611cc9575081906118b1935f92611cbe5750508160011b915f199060031b1c19161790565b90555b51805160038601916001600160401b038211610b52576118d483546123a7565b8b601f8211611c8f575b50508a90601f8311600114611c295761190d92915f918361106d5750508160011b915f199060031b1c19161790565b90555b51805160048501916001600160401b038211610b525761193083546123a7565b601f8111611bfb575b508990601f8311600114611b985761196792915f9183610c7b5750508160011b915f199060031b1c19161790565b90555b5180516005840191600160401b8211610b525788908354838555808410611b1c575b5001915f52875f205f925b828410611a0357505050509060067f130b943c3f204f5ac6830d0e103d1a1820b3aa9c9cab00aa6c254588ae3228e99392519101556119e66040519185835260608784015260608301906121fb565b926119f08161247f565b60408201528033930390a2604051908152f35b80519081516001600160401b038111610b52578b92611a2285546123a7565b601f8111611aee575b508390601f8311600114611a79578260019593869593611a5f935f92611a6e5750508160011b915f199060031b1c19161790565b85555b01920193019290611997565b015190505f8061092b565b93929190601f19821690865f52845f20915f5b818110611acb575091839160019788979695889510611ab3575b505050811b018555611a62565b01515f1960f88460031b161c191690558f8080611aa6565b93956001889484839495989a015181550195019301908f95939196949296611a8c565b611b1690865f52855f20601f850160051c810191878610610b4857601f0160051c019061256b565b8d611a2b565b845f5283835f2091820191015b818110611b36575061198c565b6001919293611b4582546123a7565b80611b57575b505001908a9291611b29565b601f81118414611b6e5750505f81555b8b8d611b4b565b83601f611b8893855f525f20920160051c8201910161256b565b805f525f8c812081835555611b67565b90601f19831691845f528b5f20925f5b8d828210611be5575050908460019594939210611bcd575b505050811b01905561196a565b01515f1960f88460031b161c191690558a8080611bc0565b6001859682939686015181550195019301611ba8565b611c2390845f528b5f20601f850160051c8101918d8610610b4857601f0160051c019061256b565b8a611939565b5f8481528c8120929190601f198516908e5b828210611c77575050908460019594939210611c5f575b505050811b019055611910565b01515f1960f88460031b161c191690558b8080611c52565b80600186978294978701518155019601940190611c3b565b611cb791855f52815f2090601f860160051c8201928610610b4857601f0160051c019061256b565b8b8b6118de565b015190508d8061092b565b9192601f198416855f52835f20935f905b828210611d16575050908460019594939210611cfe575b505050811b0190556118b4565b01515f1960f88460031b161c191690558c8080611cf1565b80600186978294978701518155019601940190611cda565b611d5691855f52815f2090601f850160051c8201928510610b4857601f0160051c019061256b565b8c8c611881565b015190508e8061092b565b9192601f198416855f52835f20935f905b828210611db5575050908460019594939210611d9d575b505050811b019055611857565b01515f1960f88460031b161c191690558d8080611d90565b80600186978294978701518155019601940190611d79565b611df591855f52815f2090601f850160051c8201928510610b4857601f0160051c019061256b565b8d8d611824565b5f8481528c8120929190601f198516908e5b828210611e4a575050908460019594939210611e32575b505050811b019055611762565b01515f1960f88460031b161c191690558b8080611e25565b80600186978294978701518155019601940190611e0e565b611e8a91855f52815f2090601f860160051c8201928610610b4857601f0160051c019061256b565b8b8b611730565b60405162461bcd60e51b8152600481018a9052602e60248201527f45524337323155524953746f726167653a2055524920736574206f66206e6f6e60448201526d32bc34b9ba32b73a103a37b5b2b760911b6064820152608490fd5b60648a6040519062461bcd60e51b825280600483015260248201527f4552433732313a206d696e7420746f20746865207a65726f20616464726573736044820152fd5b3461015a57604036600319011261015a57611f4961221f565b602435906001600160a01b03611f5e83612684565b6001600160a01b03909216911681811461206757803314908115612043575b5015611fd8575f82815260046020526040902080546001600160a01b031916821790556001600160a01b03611fb183612684565b167f8c5be1e5ebec7d5bd14f71427d1e84f3dd0314c0f7b2291e5b200ac8c7c3b9255f80a4005b60405162461bcd60e51b815260206004820152603d60248201527f4552433732313a20617070726f76652063616c6c6572206973206e6f7420746f60448201527f6b656e206f776e6572206f7220617070726f76656420666f7220616c6c0000006064820152608490fd5b5f90815260056020908152604080832033845290915290205460ff16905083611f7d565b60405162461bcd60e51b815260206004820152602160248201527f4552433732313a20617070726f76616c20746f2063757272656e74206f776e656044820152603960f91b6064820152608490fd5b3461015a57602036600319011261015a576020610e5860043561252f565b3461015a575f36600319011261015a576040515f5f546120f3816123a7565b80845290600181169081156104b7575060011461211a576102af8361029b81850382612282565b5f8080527f290decd9548b62a8d60345a988386fc84ba6bc95484008f6362f93160ef3e563939250905b80821061215c5750909150810160200161029b610449565b919260018160209254838588010152019101909291612144565b3461015a57602036600319011261015a576004359063ffffffff60e01b821680920361015a57602091632483248360e11b81149081156121b8575b5015158152f35b6380ac58cd60e01b8114915081156121ea575b81156121d9575b50836121b1565b6301ffc9a760e01b149050836121d2565b635b5e139f60e01b811491506121cb565b805180835260209291819084018484015e5f828201840152601f01601f1916010190565b600435906001600160a01b038216820361015a57565b602435906001600160a01b038216820361015a57565b60e081019081106001600160401b03821117610b5257604052565b61010081019081106001600160401b03821117610b5257604052565b90601f801991011681019081106001600160401b03821117610b5257604052565b6001600160401b038111610b5257601f01601f191660200190565b9291926122ca826122a3565b916122d86040519384612282565b82948184528183011161015a578281602093845f960137010152565b9080601f8301121561015a5781602061230f933591016122be565b90565b6001600160401b038111610b525760051b60200190565b9080601f8301121561015a57813561234081612312565b9261234e6040519485612282565b81845260208085019260051b8201019183831161015a5760208201905b83821061237a57505050505090565b81356001600160401b03811161015a5760209161239c878480948801016122f4565b81520191019061236b565b90600182811c921680156123d5575b60208310146123c157565b634e487b7160e01b5f52602260045260245ffd5b91607f16916123b6565b9060405191825f8254926123f2846123a7565b808452936001811690811561245d5750600114612419575b5061241792500383612282565b565b90505f9291925260205f20905f915b818310612441575050906020612417928201015f61240a565b6020919350806001915483858901015201910190918492612428565b90506020925061241794915060ff191682840152151560051b8201015f61240a565b6003111561248957565b634e487b7160e01b5f52602160045260245ffd5b9080602083519182815201916020808360051b8301019401925f915b8383106124c857505050505090565b90919293946020806124e6600193601f1986820301875289516121fb565b970193019301919392906124b9565b606090600319011261015a576004356001600160a01b038116810361015a57906024356001600160a01b038116810361015a579060443590565b5f81815260026020526040902054612551906001600160a01b03161515612638565b5f908152600460205260409020546001600160a01b031690565b818110612576575050565b5f815560010161256b565b90815461258d81612312565b9261259b6040519485612282565b81845260208401905f5260205f205f915b8383106125b95750505050565b6001602081926125c8856123df565b8152019201920191906125ac565b156125dd57565b60405162461bcd60e51b815260206004820152602d60248201527f4552433732313a2063616c6c6572206973206e6f7420746f6b656e206f776e6560448201526c1c881bdc88185c1c1c9bdd9959609a1b6064820152608490fd5b1561263f57565b60405162461bcd60e51b815260206004820152601860248201527f4552433732313a20696e76616c696420746f6b656e20494400000000000000006044820152606490fd5b5f908152600260205260409020546001600160a01b031661230f811515612638565b5f818152600260205260409020546126c8906001600160a01b03161515612638565b5f5260066020526126db60405f206123df565b5f6040516126ea602082612282565b5290565b600854919060015b8381111561274d5760405162461bcd60e51b815260206004820152602160248201527f4e6f2070726f66696c6520666f756e6420666f722074686973206164647265736044820152607360f81b6064820152608490fd5b61275681612684565b6001600160a01b03838116911614612778575f198114610d19576001016126f6565b925050565b906001600160a01b0361278f82612684565b6001600160a01b03909316921682811492919083156127cf575b5082156127b557505090565b9091506001600160a01b03906127ca9061252f565b161490565b9092505f52600560205260405f20815f5260205260ff60405f205416915f6127a9565b156127f957565b60405162461bcd60e51b815260206004820152602560248201527f4552433732313a207472616e736665722066726f6d20696e636f72726563742060448201526437bbb732b960d91b6064820152608490fd5b9061286d61285984612684565b6001600160a01b03938416931683146127f2565b6001600160a01b031690811561291f57612899816001600160a01b0361289286612684565b16146127f2565b825f52600460205260405f206001600160601b0360a01b8154169055805f52600360205260405f205f198154019055815f52600360205260405f2060018154019055825f52600260205260405f20826001600160601b0360a01b8254161790557fddf252ad1be2c89b69c2b068fc378daa952ba7f163c4a11628f55a4df523b3ef5f80a4565b60405162461bcd60e51b8152602060048201526024808201527f4552433732313a207472616e7366657220746f20746865207a65726f206164646044820152637265737360e01b6064820152608490fd5b6007546001600160a01b0316330361298457565b606460405162461bcd60e51b815260206004820152602060248201527f4f776e61626c653a2063616c6c6572206973206e6f7420746865206f776e65726044820152fd5b60809060208152603260208201527f4552433732313a207472616e7366657220746f206e6f6e20455243373231526560408201527131b2b4bb32b91034b6b83632b6b2b73a32b960711b60608201520190565b15612a2257565b60405162461bcd60e51b815280612a3b600482016129c8565b0390fd5b91823b15612b4e57612a84926020925f604051809681958294630a85bd0160e11b845233600485015284602485015260448401526080606484015260848301906121fb565b03926001600160a01b03165af15f9181612b09575b50612af3573d15612aec573d612aae816122a3565b90612abc6040519283612282565b81523d5f602083013e5b80519081612ae75760405162461bcd60e51b815280612a3b600482016129c8565b602001fd5b6060612ac6565b6001600160e01b031916630a85bd0160e11b1490565b9091506020813d602011612b46575b81612b2560209383612282565b8101031261015a57516001600160e01b03198116810361015a57905f612a99565b3d9150612b18565b505050600190565b919290803b15612ba557612a84935f60209460405196879586948593630a85bd0160e11b855233600486015260018060a01b0316602485015260448401526080606484015260848301906121fb565b50505050600190565b15612bb557565b60405162461bcd60e51b815260206004820152601c60248201527f4552433732313a20746f6b656e20616c7265616479206d696e746564000000006044820152606490fdfea2646970667358221220e2008ec8e73fada318d9f249d3643e589f90bc12db73a4faab277ea7507fd0aa64736f6c634300081c0033",
    "sourcePath": "/home/ryudev/JarProjects/flowseeker/flowseeker-smartcontract/contracts/FlowSeekerPlatform.sol",
    "compiler": {
        "name": "solc",
        "version": "0.8.28+commit.7893614a"
    },
    "functionHashes": {
        "ApplyToJob(uint256,string)": "3fbd0fbf",
        "approve(address,uint256)": "095ea7b3",
        "balanceOf(address)": "70a08231",
        "createJob(string,string,string[],uint256)": "6f00bc93",
        "createUserProfile(uint8,string,string,string,string,string[],string)": "142de2ea",
        "getApproved(uint256)": "081812fc",
        "getJobList(uint256)": "88798fe9",
        "getUserProfile(uint256)": "1f52b76c",
        "getUserTokenId(address)": "fefd4e4f",
        "isApprovedForAll(address,address)": "e985e9c5",
        "jobApplications(uint256)": "699687cf",
        "jobs(uint256)": "180aedf3",
        "name()": "06fdde03",
        "owner()": "8da5cb5b",
        "ownerOf(uint256)": "6352211e",
        "renounceOwnership()": "715018a6",
        "safeTransferFrom(address,address,uint256)": "42842e0e",
        "safeTransferFrom(address,address,uint256,bytes)": "b88d4fde",
        "setApprovalForAll(address,bool)": "a22cb465",
        "supportsInterface(bytes4)": "01ffc9a7",
        "symbol()": "95d89b41",
        "tokenURI(uint256)": "c87b56dd",
        "transferFrom(address,address,uint256)": "23b872dd",
        "transferOwnership(address)": "f2fde38b",
        "userProfiles(uint256)": "18d4a12d"
    },
    "gasEstimates": {
        "creation": {
            "codeDepositCost": "2262400",
            "executionCost": "infinite",
            "totalCost": "infinite"
        },
        "external": {
            "ApplyToJob(uint256,string)": "infinite",
            "approve(address,uint256)": "infinite",
            "balanceOf(address)": "2733",
            "createJob(string,string,string[],uint256)": "infinite",
            "createUserProfile(uint8,string,string,string,string,string[],string)": "infinite",
            "getApproved(uint256)": "4673",
            "getJobList(uint256)": "infinite",
            "getUserProfile(uint256)": "infinite",
            "getUserTokenId(address)": "infinite",
            "isApprovedForAll(address,address)": "3057",
            "jobApplications(uint256)": "infinite",
            "jobs(uint256)": "infinite",
            "name()": "infinite",
            "owner()": "2654",
            "ownerOf(uint256)": "2710",
            "renounceOwnership()": "28390",
            "safeTransferFrom(address,address,uint256)": "infinite",
            "safeTransferFrom(address,address,uint256,bytes)": "infinite",
            "setApprovalForAll(address,bool)": "26869",
            "supportsInterface(bytes4)": "379",
            "symbol()": "infinite",
            "tokenURI(uint256)": "infinite",
            "transferFrom(address,address,uint256)": "infinite",
            "transferOwnership(address)": "28677",
            "userProfiles(uint256)": "infinite"
        }
    }
}